{
  "_format": "hh-sol-artifact-1",
  "contractName": "CharityPlatform",
  "sourceName": "contracts/CharityPlatform.sol",
  "abi": [
    {
      "inputs": [
        {
          "internalType": "address payable",
          "name": "_feeRecipient",
          "type": "address"
        }
      ],
      "stateMutability": "nonpayable",
      "type": "constructor"
    },
    {
      "anonymous": false,
      "inputs": [
        {
          "indexed": true,
          "internalType": "uint256",
          "name": "charityId",
          "type": "uint256"
        },
        {
          "indexed": true,
          "internalType": "address",
          "name": "creator",
          "type": "address"
        },
        {
          "indexed": true,
          "internalType": "address",
          "name": "charityWallet",
          "type": "address"
        },
        {
          "indexed": false,
          "internalType": "string",
          "name": "name",
          "type": "string"
        },
        {
          "indexed": false,
          "internalType": "uint256",
          "name": "targetAmount",
          "type": "uint256"
        }
      ],
      "name": "CharityCreated",
      "type": "event"
    },
    {
      "anonymous": false,
      "inputs": [
        {
          "indexed": true,
          "internalType": "uint256",
          "name": "charityId",
          "type": "uint256"
        },
        {
          "indexed": false,
          "internalType": "bool",
          "name": "verified",
          "type": "bool"
        }
      ],
      "name": "CharityVerified",
      "type": "event"
    },
    {
      "anonymous": false,
      "inputs": [
        {
          "indexed": true,
          "internalType": "uint256",
          "name": "charityId",
          "type": "uint256"
        },
        {
          "indexed": true,
          "internalType": "address",
          "name": "charity",
          "type": "address"
        },
        {
          "indexed": false,
          "internalType": "uint256",
          "name": "amount",
          "type": "uint256"
        }
      ],
      "name": "CharityWithdrawal",
      "type": "event"
    },
    {
      "anonymous": false,
      "inputs": [
        {
          "indexed": true,
          "internalType": "uint256",
          "name": "donationId",
          "type": "uint256"
        },
        {
          "indexed": true,
          "internalType": "uint256",
          "name": "charityId",
          "type": "uint256"
        },
        {
          "indexed": true,
          "internalType": "address",
          "name": "donor",
          "type": "address"
        },
        {
          "indexed": false,
          "internalType": "uint256",
          "name": "amount",
          "type": "uint256"
        },
        {
          "indexed": false,
          "internalType": "string",
          "name": "message",
          "type": "string"
        }
      ],
      "name": "DonationMade",
      "type": "event"
    },
    {
      "anonymous": false,
      "inputs": [
        {
          "indexed": true,
          "internalType": "address",
          "name": "previousOwner",
          "type": "address"
        },
        {
          "indexed": true,
          "internalType": "address",
          "name": "newOwner",
          "type": "address"
        }
      ],
      "name": "OwnershipTransferred",
      "type": "event"
    },
    {
      "anonymous": false,
      "inputs": [
        {
          "indexed": false,
          "internalType": "address",
          "name": "account",
          "type": "address"
        }
      ],
      "name": "Paused",
      "type": "event"
    },
    {
      "anonymous": false,
      "inputs": [
        {
          "indexed": false,
          "internalType": "uint256",
          "name": "newFeeRate",
          "type": "uint256"
        }
      ],
      "name": "PlatformFeeUpdated",
      "type": "event"
    },
    {
      "anonymous": false,
      "inputs": [
        {
          "indexed": false,
          "internalType": "address",
          "name": "account",
          "type": "address"
        }
      ],
      "name": "Unpaused",
      "type": "event"
    },
    {
      "inputs": [
        {
          "internalType": "uint256",
          "name": "",
          "type": "uint256"
        }
      ],
      "name": "charities",
      "outputs": [
        {
          "internalType": "uint256",
          "name": "id",
          "type": "uint256"
        },
        {
          "internalType": "address payable",
          "name": "charityWallet",
          "type": "address"
        },
        {
          "internalType": "address",
          "name": "creator",
          "type": "address"
        },
        {
          "internalType": "string",
          "name": "name",
          "type": "string"
        },
        {
          "internalType": "string",
          "name": "description",
          "type": "string"
        },
        {
          "internalType": "string",
          "name": "category",
          "type": "string"
        },
        {
          "internalType": "uint256",
          "name": "targetAmount",
          "type": "uint256"
        },
        {
          "internalType": "uint256",
          "name": "raisedAmount",
          "type": "uint256"
        },
        {
          "internalType": "uint256",
          "name": "createdAt",
          "type": "uint256"
        },
        {
          "internalType": "bool",
          "name": "isActive",
          "type": "bool"
        },
        {
          "internalType": "bool",
          "name": "isVerified",
          "type": "bool"
        },
        {
          "internalType": "string",
          "name": "ipfsHash",
          "type": "string"
        }
      ],
      "stateMutability": "view",
      "type": "function"
    },
    {
      "inputs": [
        {
          "internalType": "uint256",
          "name": "",
          "type": "uint256"
        },
        {
          "internalType": "uint256",
          "name": "",
          "type": "uint256"
        }
      ],
      "name": "charityDonations",
      "outputs": [
        {
          "internalType": "uint256",
          "name": "",
          "type": "uint256"
        }
      ],
      "stateMutability": "view",
      "type": "function"
    },
    {
      "inputs": [
        {
          "internalType": "address payable",
          "name": "_charityWallet",
          "type": "address"
        },
        {
          "internalType": "string",
          "name": "_name",
          "type": "string"
        },
        {
          "internalType": "string",
          "name": "_description",
          "type": "string"
        },
        {
          "internalType": "string",
          "name": "_category",
          "type": "string"
        },
        {
          "internalType": "uint256",
          "name": "_targetAmount",
          "type": "uint256"
        },
        {
          "internalType": "string",
          "name": "_ipfsHash",
          "type": "string"
        }
      ],
      "name": "createCharity",
      "outputs": [
        {
          "internalType": "uint256",
          "name": "",
          "type": "uint256"
        }
      ],
      "stateMutability": "nonpayable",
      "type": "function"
    },
    {
      "inputs": [
        {
          "internalType": "uint256",
          "name": "_charityId",
          "type": "uint256"
        },
        {
          "internalType": "string",
          "name": "_message",
          "type": "string"
        }
      ],
      "name": "donate",
      "outputs": [],
      "stateMutability": "payable",
      "type": "function"
    },
    {
      "inputs": [
        {
          "internalType": "uint256",
          "name": "",
          "type": "uint256"
        }
      ],
      "name": "donations",
      "outputs": [
        {
          "internalType": "uint256",
          "name": "charityId",
          "type": "uint256"
        },
        {
          "internalType": "address",
          "name": "donor",
          "type": "address"
        },
        {
          "internalType": "uint256",
          "name": "amount",
          "type": "uint256"
        },
        {
          "internalType": "uint256",
          "name": "timestamp",
          "type": "uint256"
        },
        {
          "internalType": "string",
          "name": "message",
          "type": "string"
        }
      ],
      "stateMutability": "view",
      "type": "function"
    },
    {
      "inputs": [],
      "name": "emergencyWithdraw",
      "outputs": [],
      "stateMutability": "nonpayable",
      "type": "function"
    },
    {
      "inputs": [],
      "name": "feeRecipient",
      "outputs": [
        {
          "internalType": "address payable",
          "name": "",
          "type": "address"
        }
      ],
      "stateMutability": "view",
      "type": "function"
    },
    {
      "inputs": [
        {
          "internalType": "uint256",
          "name": "_charityId",
          "type": "uint256"
        }
      ],
      "name": "getCharity",
      "outputs": [
        {
          "components": [
            {
              "internalType": "uint256",
              "name": "id",
              "type": "uint256"
            },
            {
              "internalType": "address payable",
              "name": "charityWallet",
              "type": "address"
            },
            {
              "internalType": "address",
              "name": "creator",
              "type": "address"
            },
            {
              "internalType": "string",
              "name": "name",
              "type": "string"
            },
            {
              "internalType": "string",
              "name": "description",
              "type": "string"
            },
            {
              "internalType": "string",
              "name": "category",
              "type": "string"
            },
            {
              "internalType": "uint256",
              "name": "targetAmount",
              "type": "uint256"
            },
            {
              "internalType": "uint256",
              "name": "raisedAmount",
              "type": "uint256"
            },
            {
              "internalType": "uint256",
              "name": "createdAt",
              "type": "uint256"
            },
            {
              "internalType": "bool",
              "name": "isActive",
              "type": "bool"
            },
            {
              "internalType": "bool",
              "name": "isVerified",
              "type": "bool"
            },
            {
              "internalType": "string",
              "name": "ipfsHash",
              "type": "string"
            }
          ],
          "internalType": "struct CharityPlatform.Charity",
          "name": "",
          "type": "tuple"
        }
      ],
      "stateMutability": "view",
      "type": "function"
    },
    {
      "inputs": [
        {
          "internalType": "uint256",
          "name": "_charityId",
          "type": "uint256"
        }
      ],
      "name": "getCharityDonations",
      "outputs": [
        {
          "internalType": "uint256[]",
          "name": "",
          "type": "uint256[]"
        }
      ],
      "stateMutability": "view",
      "type": "function"
    },
    {
      "inputs": [
        {
          "internalType": "uint256",
          "name": "_charityId",
          "type": "uint256"
        }
      ],
      "name": "getCharityProgress",
      "outputs": [
        {
          "internalType": "uint256",
          "name": "raised",
          "type": "uint256"
        },
        {
          "internalType": "uint256",
          "name": "target",
          "type": "uint256"
        },
        {
          "internalType": "uint256",
          "name": "percentage",
          "type": "uint256"
        }
      ],
      "stateMutability": "view",
      "type": "function"
    },
    {
      "inputs": [
        {
          "internalType": "uint256",
          "name": "_donationId",
          "type": "uint256"
        }
      ],
      "name": "getDonation",
      "outputs": [
        {
          "components": [
            {
              "internalType": "uint256",
              "name": "charityId",
              "type": "uint256"
            },
            {
              "internalType": "address",
              "name": "donor",
              "type": "address"
            },
            {
              "internalType": "uint256",
              "name": "amount",
              "type": "uint256"
            },
            {
              "internalType": "uint256",
              "name": "timestamp",
              "type": "uint256"
            },
            {
              "internalType": "string",
              "name": "message",
              "type": "string"
            }
          ],
          "internalType": "struct CharityPlatform.Donation",
          "name": "",
          "type": "tuple"
        }
      ],
      "stateMutability": "view",
      "type": "function"
    },
    {
      "inputs": [],
      "name": "getTotalCharities",
      "outputs": [
        {
          "internalType": "uint256",
          "name": "",
          "type": "uint256"
        }
      ],
      "stateMutability": "view",
      "type": "function"
    },
    {
      "inputs": [],
      "name": "getTotalDonations",
      "outputs": [
        {
          "internalType": "uint256",
          "name": "",
          "type": "uint256"
        }
      ],
      "stateMutability": "view",
      "type": "function"
    },
    {
      "inputs": [
        {
          "internalType": "address",
          "name": "_user",
          "type": "address"
        }
      ],
      "name": "getUserCharities",
      "outputs": [
        {
          "internalType": "uint256[]",
          "name": "",
          "type": "uint256[]"
        }
      ],
      "stateMutability": "view",
      "type": "function"
    },
    {
      "inputs": [
        {
          "internalType": "address",
          "name": "_user",
          "type": "address"
        }
      ],
      "name": "getUserDonations",
      "outputs": [
        {
          "internalType": "uint256[]",
          "name": "",
          "type": "uint256[]"
        }
      ],
      "stateMutability": "view",
      "type": "function"
    },
    {
      "inputs": [],
      "name": "owner",
      "outputs": [
        {
          "internalType": "address",
          "name": "",
          "type": "address"
        }
      ],
      "stateMutability": "view",
      "type": "function"
    },
    {
      "inputs": [],
      "name": "pause",
      "outputs": [],
      "stateMutability": "nonpayable",
      "type": "function"
    },
    {
      "inputs": [],
      "name": "paused",
      "outputs": [
        {
          "internalType": "bool",
          "name": "",
          "type": "bool"
        }
      ],
      "stateMutability": "view",
      "type": "function"
    },
    {
      "inputs": [],
      "name": "platformFeeRate",
      "outputs": [
        {
          "internalType": "uint256",
          "name": "",
          "type": "uint256"
        }
      ],
      "stateMutability": "view",
      "type": "function"
    },
    {
      "inputs": [],
      "name": "renounceOwnership",
      "outputs": [],
      "stateMutability": "nonpayable",
      "type": "function"
    },
    {
      "inputs": [
        {
          "internalType": "address",
          "name": "newOwner",
          "type": "address"
        }
      ],
      "name": "transferOwnership",
      "outputs": [],
      "stateMutability": "nonpayable",
      "type": "function"
    },
    {
      "inputs": [],
      "name": "unpause",
      "outputs": [],
      "stateMutability": "nonpayable",
      "type": "function"
    },
    {
      "inputs": [
        {
          "internalType": "uint256",
          "name": "_charityId",
          "type": "uint256"
        },
        {
          "internalType": "bool",
          "name": "_isActive",
          "type": "bool"
        }
      ],
      "name": "updateCharityStatus",
      "outputs": [],
      "stateMutability": "nonpayable",
      "type": "function"
    },
    {
      "inputs": [
        {
          "internalType": "address payable",
          "name": "_newRecipient",
          "type": "address"
        }
      ],
      "name": "updateFeeRecipient",
      "outputs": [],
      "stateMutability": "nonpayable",
      "type": "function"
    },
    {
      "inputs": [
        {
          "internalType": "uint256",
          "name": "_newFeeRate",
          "type": "uint256"
        }
      ],
      "name": "updatePlatformFee",
      "outputs": [],
      "stateMutability": "nonpayable",
      "type": "function"
    },
    {
      "inputs": [
        {
          "internalType": "address",
          "name": "",
          "type": "address"
        },
        {
          "internalType": "uint256",
          "name": "",
          "type": "uint256"
        }
      ],
      "name": "userCharities",
      "outputs": [
        {
          "internalType": "uint256",
          "name": "",
          "type": "uint256"
        }
      ],
      "stateMutability": "view",
      "type": "function"
    },
    {
      "inputs": [
        {
          "internalType": "address",
          "name": "",
          "type": "address"
        },
        {
          "internalType": "uint256",
          "name": "",
          "type": "uint256"
        }
      ],
      "name": "userDonations",
      "outputs": [
        {
          "internalType": "uint256",
          "name": "",
          "type": "uint256"
        }
      ],
      "stateMutability": "view",
      "type": "function"
    },
    {
      "inputs": [
        {
          "internalType": "uint256",
          "name": "_charityId",
          "type": "uint256"
        },
        {
          "internalType": "bool",
          "name": "_verified",
          "type": "bool"
        }
      ],
      "name": "verifyCharity",
      "outputs": [],
      "stateMutability": "nonpayable",
      "type": "function"
    },
    {
      "inputs": [
        {
          "internalType": "uint256",
          "name": "_charityId",
          "type": "uint256"
        }
      ],
      "name": "withdrawFunds",
      "outputs": [],
      "stateMutability": "nonpayable",
      "type": "function"
    },
    {
      "stateMutability": "payable",
      "type": "receive"
    }
  ],
  "bytecode": "0x608060405260fa6009553480156200001657600080fd5b5060405162002a6338038062002a638339810160408190526200003991620000d7565b6001600055620000493362000085565b6001805460ff60a01b19168155600a80546001600160a01b0319166001600160a01b039390931692909217909155600281905560035562000109565b600180546001600160a01b038381166001600160a01b0319831681179093556040519116919082907f8be0079c531659141344cd1fd0a4f28419497f9722a3daafe3b4186f6b6457e090600090a35050565b600060208284031215620000ea57600080fd5b81516001600160a01b03811681146200010257600080fd5b9392505050565b61294a80620001196000396000f3fe6080604052600436106101c65760003560e01c80638109a2e8116100f7578063e10520b911610095578063f2fde38b11610064578063f2fde38b14610552578063f8626af814610572578063fb709d2e146105a3578063fd67db81146105db57600080fd5b8063e10520b9146104cf578063eeca08f0146104ef578063ef07a81f14610505578063f160d3691461053257600080fd5b80638da5cb5b116100d15780638da5cb5b1461045c578063aa0b59881461047a578063c7995fb41461049a578063db2e21bc146104ba57600080fd5b80638109a2e8146103f95780638456cb59146104345780638d59d1f11461044957600080fd5b80635c975abb116101645780636e041b4a1161013e5780636e041b4a1461038f578063715018a6146103af578063732435b2146103c4578063777c658f146103e457600080fd5b80635c975abb146103305780635cbbb5741461035a5780636047bbb41461037a57600080fd5b806346904840116101a0578063469048401461028a5780634933e631146102c25780634d934c14146102f057806359d06eba1461031057600080fd5b806302972f691461021d578063155dd5ee146102535780633f4ba83a1461027557600080fd5b366102185760405162461bcd60e51b815260206004820152601b60248201527f446972656374207061796d656e7473206e6f7420616c6c6f776564000000000060448201526064015b60405180910390fd5b600080fd5b34801561022957600080fd5b5061023d61023836600461217c565b610608565b60405161024a91906121a0565b60405180910390f35b34801561025f57600080fd5b5061027361026e3660046121e4565b610674565b005b34801561028157600080fd5b50610273610842565b34801561029657600080fd5b50600a546102aa906001600160a01b031681565b6040516001600160a01b03909116815260200161024a565b3480156102ce57600080fd5b506102e26102dd3660046121fd565b610854565b60405190815260200161024a565b3480156102fc57600080fd5b5061027361030b366004612229565b610885565b34801561031c57600080fd5b5061023d61032b3660046121e4565b610939565b34801561033c57600080fd5b50600154600160a01b900460ff16604051901515815260200161024a565b34801561036657600080fd5b506102e261037536600461225e565b610999565b34801561038657600080fd5b506102e26109b5565b34801561039b57600080fd5b506102e26103aa3660046121fd565b6109cb565b3480156103bb57600080fd5b506102736109e7565b3480156103d057600080fd5b5061023d6103df36600461217c565b6109f9565b3480156103f057600080fd5b506102e2610a63565b34801561040557600080fd5b506104196104143660046121e4565b610a74565b6040805193845260208401929092529082015260600161024a565b34801561044057600080fd5b50610273610db8565b610273610457366004612323565b610dc8565b34801561046857600080fd5b506001546001600160a01b03166102aa565b34801561048657600080fd5b506102736104953660046121e4565b611134565b3480156104a657600080fd5b506102736104b5366004612229565b6111c9565b3480156104c657600080fd5b50610273611266565b3480156104db57600080fd5b506102e26104ea36600461237a565b6112ed565b3480156104fb57600080fd5b506102e260095481565b34801561051157600080fd5b506105256105203660046121e4565b6115cd565b60405161024a9190612486565b34801561053e57600080fd5b5061027361054d36600461217c565b611759565b34801561055e57600080fd5b5061027361056d36600461217c565b6117d9565b34801561057e57600080fd5b5061059261058d3660046121e4565b61184f565b60405161024a9594939291906124d9565b3480156105af57600080fd5b506105c36105be3660046121e4565b611912565b60405161024a9c9b9a99989796959493929190612517565b3480156105e757600080fd5b506105fb6105f63660046121e4565b611ba6565b60405161024a91906125c5565b6001600160a01b03811660009081526006602090815260409182902080548351818402810184019094528084526060939283018282801561066857602002820191906000526020600020905b815481526020019060010190808311610654575b50505050509050919050565b61067c611f2d565b60008181526004602052604090206002015481906001600160a01b031633146106dd5760405162461bcd60e51b81526020600482015260136024820152722737ba1031b430b934ba3c9031b932b0ba37b960691b604482015260640161020f565b60008281526004602052604081205483910361070b5760405162461bcd60e51b815260040161020f906126d2565b60008381526004602052604090206009810154610100900460ff166107695760405162461bcd60e51b815260206004820152601460248201527310da185c9a5d1e481b9bdd081d995c9a599a595960621b604482015260640161020f565b47806107ae5760405162461bcd60e51b81526020600482015260146024820152734e6f2066756e647320746f20776974686472617760601b604482015260640161020f565b60018201546040516001600160a01b039091169082156108fc029083906000818181858888f193505050501580156107ea573d6000803e3d6000fd5b5060018201546040518281526001600160a01b039091169086907fde3cdd3b9cde404cf5d2312f56d8058187948ddae6185702e0ef5e4b2027930b9060200160405180910390a35050505061083f6001600055565b50565b61084a611f86565b610852611fe0565b565b6007602052816000526040600020818154811061087057600080fd5b90600052602060002001600091509150505481565b60008281526004602052604090206002015482906001600160a01b031633146108e65760405162461bcd60e51b81526020600482015260136024820152722737ba1031b430b934ba3c9031b932b0ba37b960691b604482015260640161020f565b6000838152600460205260408120548491036109145760405162461bcd60e51b815260040161020f906126d2565b5050600091825260046020526040909120600901805460ff1916911515919091179055565b60008181526008602090815260409182902080548351818402810184019094528084526060939283018282801561066857602002820191906000526020600020908154815260200190600101908083116106545750505050509050919050565b6008602052816000526040600020818154811061087057600080fd5b600060016002546109c69190612718565b905090565b6006602052816000526040600020818154811061087057600080fd5b6109ef611f86565b6108526000612035565b6001600160a01b03811660009081526007602090815260409182902080548351818402810184019094528084526060939283018282801561066857602002820191906000526020600020908154815260200190600101908083116106545750505050509050919050565b600060016003546109c69190612718565b6000818152600460205260408120548190819084908203610aa75760405162461bcd60e51b815260040161020f906126d2565b60008581526004602090815260408083208151610180810183528154815260018201546001600160a01b0390811694820194909452600282015490931691830191909152600381018054606084019190610b0090612731565b80601f0160208091040260200160405190810160405280929190818152602001828054610b2c90612731565b8015610b795780601f10610b4e57610100808354040283529160200191610b79565b820191906000526020600020905b815481529060010190602001808311610b5c57829003601f168201915b50505050508152602001600482018054610b9290612731565b80601f0160208091040260200160405190810160405280929190818152602001828054610bbe90612731565b8015610c0b5780601f10610be057610100808354040283529160200191610c0b565b820191906000526020600020905b815481529060010190602001808311610bee57829003601f168201915b50505050508152602001600582018054610c2490612731565b80601f0160208091040260200160405190810160405280929190818152602001828054610c5090612731565b8015610c9d5780601f10610c7257610100808354040283529160200191610c9d565b820191906000526020600020905b815481529060010190602001808311610c8057829003601f168201915b5050509183525050600682015460208201526007820154604082015260088201546060820152600982015460ff8082161515608084015261010090910416151560a0820152600a8201805460c090920191610cf790612731565b80601f0160208091040260200160405190810160405280929190818152602001828054610d2390612731565b8015610d705780601f10610d4557610100808354040283529160200191610d70565b820191906000526020600020905b815481529060010190602001808311610d5357829003601f168201915b50505050508152505090508060e0015194508060c00151935060008411610d98576000610dae565b83610da4866064612765565b610dae919061277c565b9496939550505050565b610dc0611f86565b610852612087565b610dd0611f2d565b610dd86120ca565b600082815260046020526040812054839103610e065760405162461bcd60e51b815260040161020f906126d2565b6000838152600460205260409020600901548390610100900460ff16610e655760405162461bcd60e51b815260206004820152601460248201527310da185c9a5d1e481b9bdd081d995c9a599a595960621b604482015260640161020f565b60003411610ec45760405162461bcd60e51b815260206004820152602660248201527f446f6e6174696f6e20616d6f756e74206d75737420626520677265617465722060448201526507468616e20360d41b606482015260840161020f565b60008481526004602052604090206009015460ff16610f1d5760405162461bcd60e51b815260206004820152601560248201527443686172697479206973206e6f742061637469766560581b604482015260640161020f565b600061271060095434610f309190612765565b610f3a919061277c565b90506000610f488234612718565b905080600460008881526020019081526020016000206007016000828254610f70919061279e565b9091555050600380546040805160a0810182528981523360208083019182528284018781524260608501908152608085018d815260008881526005909452959092208451815592516001840180546001600160a01b0319166001600160a01b0390921691909117905551600283015551948101949094559051919290916004820190610ffc9082612800565b5050336000908152600760209081526040808320805460018181018355918552838520018690558b845260088352908320805491820181558352908220018390556003805492509061104d836128c0565b90915550506000878152600460205260408082206001015490516001600160a01b039091169184156108fc02918591818181858888f19350505050158015611099573d6000803e3d6000fd5b5082156110dc57600a546040516001600160a01b039091169084156108fc029085906000818181858888f193505050501580156110da573d6000803e3d6000fd5b505b336001600160a01b031687827f8ecfb7d97aff2bda1aa713d3949633f6110b38b893a6fa6b41dc2e37189b10e0858a6040516111199291906128d9565b60405180910390a450505050506111306001600055565b5050565b61113c611f86565b6103e881111561118e5760405162461bcd60e51b815260206004820152601a60248201527f46656520726174652063616e6e6f742065786365656420313025000000000000604482015260640161020f565b60098190556040518181527f45610d581145924dd7090a5017e5f2b1d6f42213bb2e95707ff86846bbfcb1ca9060200160405180910390a150565b6111d1611f86565b6000828152600460205260408120548391036111ff5760405162461bcd60e51b815260040161020f906126d2565b6000838152600460205260409081902060090180548415156101000261ff00199091161790555183907f9dc7f32ce611a4f3f8db3890e900effbb536f79c9348417c45c0d58277cc1a8b9061125990851515815260200190565b60405180910390a2505050565b61126e611f86565b47806112b35760405162461bcd60e51b81526020600482015260146024820152734e6f2066756e647320746f20776974686472617760601b604482015260640161020f565b600a546040516001600160a01b039091169082156108fc029083906000818181858888f19350505050158015611130573d6000803e3d6000fd5b60006112f76120ca565b6001600160a01b0387166113465760405162461bcd60e51b8152602060048201526016602482015275125b9d985b1a590818da185c9a5d1e481dd85b1b195d60521b604482015260640161020f565b600086511161138e5760405162461bcd60e51b81526020600482015260146024820152734e616d652063616e6e6f7420626520656d70747960601b604482015260640161020f565b600083116113ea5760405162461bcd60e51b8152602060048201526024808201527f54617267657420616d6f756e74206d75737420626520677265617465722074686044820152630616e20360e41b606482015260840161020f565b6002805460408051610180810182528281526001600160a01b03808c16602080840191825233848601908152606085018e8152608086018e905260a086018d905260c086018c9052600060e087018190524261010088015260016101208801819052610140880182905261016088018d905289825260049094529690962085518155925191830180549285166001600160a01b031993841617905551968201805497909316961695909517905590519192909160038201906114ac9082612800565b50608082015160048201906114c19082612800565b5060a082015160058201906114d69082612800565b5060c0820151600682015560e0820151600782015561010080830151600883015561012083015160098301805461014086015161ffff1990911692151561ff00191692909217911515909202179055610160820151600a82019061153a9082612800565b505033600090815260066020908152604082208054600181018255908352908220018390556002805492509061156f836128c0565b9190505550876001600160a01b0316336001600160a01b0316827f20d9732b18f58faa7f13990deaeb8deb68f5c293095f142e41f8183dceda12bc8a886040516115ba9291906128f2565b60405180910390a4979650505050505050565b6116086040518060a001604052806000815260200160006001600160a01b031681526020016000815260200160008152602001606081525090565b6000828152600560205260409020600101546001600160a01b031661166f5760405162461bcd60e51b815260206004820152601760248201527f446f6e6174696f6e20646f6573206e6f74206578697374000000000000000000604482015260640161020f565b600082815260056020908152604091829020825160a0810184528154815260018201546001600160a01b031692810192909252600281015492820192909252600382015460608201526004820180549192916080840191906116d090612731565b80601f01602080910402602001604051908101604052809291908181526020018280546116fc90612731565b80156117495780601f1061171e57610100808354040283529160200191611749565b820191906000526020600020905b81548152906001019060200180831161172c57829003601f168201915b5050505050815250509050919050565b611761611f86565b6001600160a01b0381166117b75760405162461bcd60e51b815260206004820152601960248201527f496e76616c696420726563697069656e74206164647265737300000000000000604482015260640161020f565b600a80546001600160a01b0319166001600160a01b0392909216919091179055565b6117e1611f86565b6001600160a01b0381166118465760405162461bcd60e51b815260206004820152602660248201527f4f776e61626c653a206e6577206f776e657220697320746865207a65726f206160448201526564647265737360d01b606482015260840161020f565b61083f81612035565b6005602052600090815260409020805460018201546002830154600384015460048501805494956001600160a01b03909416949293919261188f90612731565b80601f01602080910402602001604051908101604052809291908181526020018280546118bb90612731565b80156119085780601f106118dd57610100808354040283529160200191611908565b820191906000526020600020905b8154815290600101906020018083116118eb57829003601f168201915b5050505050905085565b600460205260009081526040902080546001820154600283015460038401805493946001600160a01b0393841694939092169261194e90612731565b80601f016020809104026020016040519081016040528092919081815260200182805461197a90612731565b80156119c75780601f1061199c576101008083540402835291602001916119c7565b820191906000526020600020905b8154815290600101906020018083116119aa57829003601f168201915b5050505050908060040180546119dc90612731565b80601f0160208091040260200160405190810160405280929190818152602001828054611a0890612731565b8015611a555780601f10611a2a57610100808354040283529160200191611a55565b820191906000526020600020905b815481529060010190602001808311611a3857829003601f168201915b505050505090806005018054611a6a90612731565b80601f0160208091040260200160405190810160405280929190818152602001828054611a9690612731565b8015611ae35780601f10611ab857610100808354040283529160200191611ae3565b820191906000526020600020905b815481529060010190602001808311611ac657829003601f168201915b505050506006830154600784015460088501546009860154600a8701805496979496939550919360ff8083169461010090930416929091611b2390612731565b80601f0160208091040260200160405190810160405280929190818152602001828054611b4f90612731565b8015611b9c5780601f10611b7157610100808354040283529160200191611b9c565b820191906000526020600020905b815481529060010190602001808311611b7f57829003601f168201915b505050505090508c565b611c206040518061018001604052806000815260200160006001600160a01b0316815260200160006001600160a01b03168152602001606081526020016060815260200160608152602001600081526020016000815260200160008152602001600015158152602001600015158152602001606081525090565b600082815260046020526040812054839103611c4e5760405162461bcd60e51b815260040161020f906126d2565b6000838152600460209081526040918290208251610180810184528154815260018201546001600160a01b0390811693820193909352600282015490921692820192909252600382018054919291606084019190611cab90612731565b80601f0160208091040260200160405190810160405280929190818152602001828054611cd790612731565b8015611d245780601f10611cf957610100808354040283529160200191611d24565b820191906000526020600020905b815481529060010190602001808311611d0757829003601f168201915b50505050508152602001600482018054611d3d90612731565b80601f0160208091040260200160405190810160405280929190818152602001828054611d6990612731565b8015611db65780601f10611d8b57610100808354040283529160200191611db6565b820191906000526020600020905b815481529060010190602001808311611d9957829003601f168201915b50505050508152602001600582018054611dcf90612731565b80601f0160208091040260200160405190810160405280929190818152602001828054611dfb90612731565b8015611e485780601f10611e1d57610100808354040283529160200191611e48565b820191906000526020600020905b815481529060010190602001808311611e2b57829003601f168201915b5050509183525050600682015460208201526007820154604082015260088201546060820152600982015460ff8082161515608084015261010090910416151560a0820152600a8201805460c090920191611ea290612731565b80601f0160208091040260200160405190810160405280929190818152602001828054611ece90612731565b8015611f1b5780601f10611ef057610100808354040283529160200191611f1b565b820191906000526020600020905b815481529060010190602001808311611efe57829003601f168201915b50505050508152505091505b50919050565b600260005403611f7f5760405162461bcd60e51b815260206004820152601f60248201527f5265656e7472616e637947756172643a207265656e7472616e742063616c6c00604482015260640161020f565b6002600055565b6001546001600160a01b031633146108525760405162461bcd60e51b815260206004820181905260248201527f4f776e61626c653a2063616c6c6572206973206e6f7420746865206f776e6572604482015260640161020f565b611fe8612117565b6001805460ff60a01b191690557f5db9ee0a495bf2e6ff9c91a7834c1ba4fdd244a5e8aa4e537bd38aeae4b073aa335b6040516001600160a01b03909116815260200160405180910390a1565b600180546001600160a01b038381166001600160a01b0319831681179093556040519116919082907f8be0079c531659141344cd1fd0a4f28419497f9722a3daafe3b4186f6b6457e090600090a35050565b61208f6120ca565b6001805460ff60a01b1916600160a01b1790557f62e78cea01bee320cd4e420270b5ea74000d11b0c9f74754ebdbfc544b05a2586120183390565b600154600160a01b900460ff16156108525760405162461bcd60e51b815260206004820152601060248201526f14185d5cd8589b194e881c185d5cd95960821b604482015260640161020f565b600154600160a01b900460ff166108525760405162461bcd60e51b815260206004820152601460248201527314185d5cd8589b194e881b9bdd081c185d5cd95960621b604482015260640161020f565b6001600160a01b038116811461083f57600080fd5b60006020828403121561218e57600080fd5b813561219981612167565b9392505050565b6020808252825182820181905260009190848201906040850190845b818110156121d8578351835292840192918401916001016121bc565b50909695505050505050565b6000602082840312156121f657600080fd5b5035919050565b6000806040838503121561221057600080fd5b823561221b81612167565b946020939093013593505050565b6000806040838503121561223c57600080fd5b823591506020830135801515811461225357600080fd5b809150509250929050565b6000806040838503121561227157600080fd5b50508035926020909101359150565b634e487b7160e01b600052604160045260246000fd5b600082601f8301126122a757600080fd5b813567ffffffffffffffff808211156122c2576122c2612280565b604051601f8301601f19908116603f011681019082821181831017156122ea576122ea612280565b8160405283815286602085880101111561230357600080fd5b836020870160208301376000602085830101528094505050505092915050565b6000806040838503121561233657600080fd5b82359150602083013567ffffffffffffffff81111561235457600080fd5b61236085828601612296565b9150509250929050565b803561237581612167565b919050565b60008060008060008060c0878903121561239357600080fd5b61239c8761236a565b9550602087013567ffffffffffffffff808211156123b957600080fd5b6123c58a838b01612296565b965060408901359150808211156123db57600080fd5b6123e78a838b01612296565b955060608901359150808211156123fd57600080fd5b6124098a838b01612296565b94506080890135935060a089013591508082111561242657600080fd5b5061243389828a01612296565b9150509295509295509295565b6000815180845260005b818110156124665760208185018101518683018201520161244a565b506000602082860101526020601f19601f83011685010191505092915050565b602081528151602082015260018060a01b03602083015116604082015260408201516060820152606082015160808201526000608083015160a0808401526124d160c0840182612440565b949350505050565b85815260018060a01b038516602082015283604082015282606082015260a06080820152600061250c60a0830184612440565b979650505050505050565b8c81526001600160a01b038c811660208301528b1660408201526101806060820181905260009061254a8382018d612440565b9050828103608084015261255e818c612440565b905082810360a0840152612572818b612440565b90508860c08401528760e08401528661010084015261259661012084018715159052565b8415156101408401528281036101608401526125b28185612440565b9f9e505050505050505050505050505050565b6020815281516020820152600060208301516125ec60408401826001600160a01b03169052565b5060408301516001600160a01b038116606084015250606083015161018080608085015261261e6101a0850183612440565b91506080850151601f19808685030160a087015261263c8483612440565b935060a08701519150808685030160c08701526126598483612440565b935060c087015160e087015260e0870151915061010082818801528088015192505061012082818801528088015192505061014061269a8188018415159052565b87015191506101606126af8782018415159052565b8701518685039091018387015290506126c88382612440565b9695505050505050565b60208082526016908201527510da185c9a5d1e48191bd95cc81b9bdd08195e1a5cdd60521b604082015260600190565b634e487b7160e01b600052601160045260246000fd5b8181038181111561272b5761272b612702565b92915050565b600181811c9082168061274557607f821691505b602082108103611f2757634e487b7160e01b600052602260045260246000fd5b808202811582820484141761272b5761272b612702565b60008261279957634e487b7160e01b600052601260045260246000fd5b500490565b8082018082111561272b5761272b612702565b601f8211156127fb57600081815260208120601f850160051c810160208610156127d85750805b601f850160051c820191505b818110156127f7578281556001016127e4565b5050505b505050565b815167ffffffffffffffff81111561281a5761281a612280565b61282e816128288454612731565b846127b1565b602080601f831160018114612863576000841561284b5750858301515b600019600386901b1c1916600185901b1785556127f7565b600085815260208120601f198616915b8281101561289257888601518255948401946001909101908401612873565b50858210156128b05787850151600019600388901b60f8161c191681555b5050505050600190811b01905550565b6000600182016128d2576128d2612702565b5060010190565b8281526040602082015260006124d16040830184612440565b6040815260006129056040830185612440565b9050826020830152939250505056fea2646970667358221220baf8f23fdfc0a02607dc9c2b8e74d3f39574e21f76a341409fd5ae69d0661fb364736f6c63430008130033",
  "linkReferences": {},
  "deployedLinkReferences": {}
}